{
  "_format": "hh-sol-artifact-1",
  "contractName": "NFT",
  "sourceName": "contracts/NFT.sol",
  "abi": [
    {
      "inputs": [
        {
          "internalType": "address",
          "name": "_marketplaceAddress",
          "type": "address"
        }
      ],
      "stateMutability": "nonpayable",
      "type": "constructor"
    },
    {
      "anonymous": false,
      "inputs": [
        {
          "indexed": true,
          "internalType": "address",
          "name": "owner",
          "type": "address"
        },
        {
          "indexed": true,
          "internalType": "address",
          "name": "approved",
          "type": "address"
        },
        {
          "indexed": true,
          "internalType": "uint256",
          "name": "tokenId",
          "type": "uint256"
        }
      ],
      "name": "Approval",
      "type": "event"
    },
    {
      "anonymous": false,
      "inputs": [
        {
          "indexed": true,
          "internalType": "address",
          "name": "owner",
          "type": "address"
        },
        {
          "indexed": true,
          "internalType": "address",
          "name": "operator",
          "type": "address"
        },
        {
          "indexed": false,
          "internalType": "bool",
          "name": "approved",
          "type": "bool"
        }
      ],
      "name": "ApprovalForAll",
      "type": "event"
    },
    {
      "anonymous": false,
      "inputs": [
        {
          "indexed": true,
          "internalType": "address",
          "name": "from",
          "type": "address"
        },
        {
          "indexed": true,
          "internalType": "address",
          "name": "to",
          "type": "address"
        },
        {
          "indexed": true,
          "internalType": "uint256",
          "name": "tokenId",
          "type": "uint256"
        }
      ],
      "name": "Transfer",
      "type": "event"
    },
    {
      "inputs": [],
      "name": "_tokenIds",
      "outputs": [
        {
          "internalType": "uint256",
          "name": "_value",
          "type": "uint256"
        }
      ],
      "stateMutability": "view",
      "type": "function"
    },
    {
      "inputs": [
        {
          "internalType": "address",
          "name": "to",
          "type": "address"
        },
        {
          "internalType": "uint256",
          "name": "tokenId",
          "type": "uint256"
        }
      ],
      "name": "approve",
      "outputs": [],
      "stateMutability": "nonpayable",
      "type": "function"
    },
    {
      "inputs": [
        {
          "internalType": "address",
          "name": "owner",
          "type": "address"
        }
      ],
      "name": "balanceOf",
      "outputs": [
        {
          "internalType": "uint256",
          "name": "",
          "type": "uint256"
        }
      ],
      "stateMutability": "view",
      "type": "function"
    },
    {
      "inputs": [
        {
          "internalType": "string",
          "name": "tokenURI",
          "type": "string"
        }
      ],
      "name": "createToken",
      "outputs": [
        {
          "internalType": "uint256",
          "name": "",
          "type": "uint256"
        }
      ],
      "stateMutability": "nonpayable",
      "type": "function"
    },
    {
      "inputs": [
        {
          "internalType": "uint256",
          "name": "tokenId",
          "type": "uint256"
        }
      ],
      "name": "getApproved",
      "outputs": [
        {
          "internalType": "address",
          "name": "",
          "type": "address"
        }
      ],
      "stateMutability": "view",
      "type": "function"
    },
    {
      "inputs": [
        {
          "internalType": "address",
          "name": "owner",
          "type": "address"
        },
        {
          "internalType": "address",
          "name": "operator",
          "type": "address"
        }
      ],
      "name": "isApprovedForAll",
      "outputs": [
        {
          "internalType": "bool",
          "name": "",
          "type": "bool"
        }
      ],
      "stateMutability": "view",
      "type": "function"
    },
    {
      "inputs": [],
      "name": "name",
      "outputs": [
        {
          "internalType": "string",
          "name": "",
          "type": "string"
        }
      ],
      "stateMutability": "view",
      "type": "function"
    },
    {
      "inputs": [
        {
          "internalType": "uint256",
          "name": "tokenId",
          "type": "uint256"
        }
      ],
      "name": "ownerOf",
      "outputs": [
        {
          "internalType": "address",
          "name": "",
          "type": "address"
        }
      ],
      "stateMutability": "view",
      "type": "function"
    },
    {
      "inputs": [
        {
          "internalType": "address",
          "name": "from",
          "type": "address"
        },
        {
          "internalType": "address",
          "name": "to",
          "type": "address"
        },
        {
          "internalType": "uint256",
          "name": "tokenId",
          "type": "uint256"
        }
      ],
      "name": "safeTransferFrom",
      "outputs": [],
      "stateMutability": "nonpayable",
      "type": "function"
    },
    {
      "inputs": [
        {
          "internalType": "address",
          "name": "from",
          "type": "address"
        },
        {
          "internalType": "address",
          "name": "to",
          "type": "address"
        },
        {
          "internalType": "uint256",
          "name": "tokenId",
          "type": "uint256"
        },
        {
          "internalType": "bytes",
          "name": "_data",
          "type": "bytes"
        }
      ],
      "name": "safeTransferFrom",
      "outputs": [],
      "stateMutability": "nonpayable",
      "type": "function"
    },
    {
      "inputs": [
        {
          "internalType": "address",
          "name": "operator",
          "type": "address"
        },
        {
          "internalType": "bool",
          "name": "approved",
          "type": "bool"
        }
      ],
      "name": "setApprovalForAll",
      "outputs": [],
      "stateMutability": "nonpayable",
      "type": "function"
    },
    {
      "inputs": [
        {
          "internalType": "bytes4",
          "name": "interfaceId",
          "type": "bytes4"
        }
      ],
      "name": "supportsInterface",
      "outputs": [
        {
          "internalType": "bool",
          "name": "",
          "type": "bool"
        }
      ],
      "stateMutability": "view",
      "type": "function"
    },
    {
      "inputs": [],
      "name": "symbol",
      "outputs": [
        {
          "internalType": "string",
          "name": "",
          "type": "string"
        }
      ],
      "stateMutability": "view",
      "type": "function"
    },
    {
      "inputs": [
        {
          "internalType": "uint256",
          "name": "tokenId",
          "type": "uint256"
        }
      ],
      "name": "tokenURI",
      "outputs": [
        {
          "internalType": "string",
          "name": "",
          "type": "string"
        }
      ],
      "stateMutability": "view",
      "type": "function"
    },
    {
      "inputs": [
        {
          "internalType": "address",
          "name": "from",
          "type": "address"
        },
        {
          "internalType": "address",
          "name": "to",
          "type": "address"
        },
        {
          "internalType": "uint256",
          "name": "tokenId",
          "type": "uint256"
        }
      ],
      "name": "transferFrom",
      "outputs": [],
      "stateMutability": "nonpayable",
      "type": "function"
    }
  ],
  "bytecode": "0x60806040523480156200001157600080fd5b50604051620018c7380380620018c7833981016040819052620000349162000166565b604080518082018252600981526810da185a5b9cda1bdd60ba1b60208083019182528351808501909452600384526210d4d560ea1b9084015281519192916200008091600091620000c0565b50805162000096906001906020840190620000c0565b5050600880546001600160a01b0319166001600160a01b03939093169290921790915550620001d3565b828054620000ce9062000196565b90600052602060002090601f016020900481019282620000f257600085556200013d565b82601f106200010d57805160ff19168380011785556200013d565b828001600101855582156200013d579182015b828111156200013d57825182559160200191906001019062000120565b506200014b9291506200014f565b5090565b5b808211156200014b576000815560010162000150565b60006020828403121562000178578081fd5b81516001600160a01b03811681146200018f578182fd5b9392505050565b600181811c90821680620001ab57607f821691505b60208210811415620001cd57634e487b7160e01b600052602260045260246000fd5b50919050565b6116e480620001e36000396000f3fe608060405234801561001057600080fd5b50600436106100f55760003560e01c80636352211e11610097578063aa46a40011610066578063aa46a400146101ff578063b88d4fde14610209578063c87b56dd1461021c578063e985e9c51461022f57600080fd5b80636352211e146101be57806370a08231146101d157806395d89b41146101e4578063a22cb465146101ec57600080fd5b8063095ea7b3116100d3578063095ea7b31461016257806323b872dd1461017757806342842e0e1461018a57806345576f941461019d57600080fd5b806301ffc9a7146100fa57806306fdde0314610122578063081812fc14610137575b600080fd5b61010d610108366004611396565b61026b565b60405190151581526020015b60405180910390f35b61012a6102bd565b60405161011991906114c4565b61014a610145366004611414565b61034f565b6040516001600160a01b039091168152602001610119565b61017561017036600461136d565b6103dc565b005b61017561018536600461127f565b6104f2565b61017561019836600461127f565b610523565b6101b06101ab3660046113ce565b61053e565b604051908152602001610119565b61014a6101cc366004611414565b610586565b6101b06101df366004611233565b6105fd565b61012a610684565b6101756101fa366004611333565b610693565b6007546101b09081565b6101756102173660046112ba565b610758565b61012a61022a366004611414565b610790565b61010d61023d36600461124d565b6001600160a01b03918216600090815260056020908152604080832093909416825291909152205460ff1690565b60006001600160e01b031982166380ac58cd60e01b148061029c57506001600160e01b03198216635b5e139f60e01b145b806102b757506301ffc9a760e01b6001600160e01b03198316145b92915050565b6060600080546102cc906115e9565b80601f01602080910402602001604051908101604052809291908181526020018280546102f8906115e9565b80156103455780601f1061031a57610100808354040283529160200191610345565b820191906000526020600020905b81548152906001019060200180831161032857829003601f168201915b5050505050905090565b600061035a82610907565b6103c05760405162461bcd60e51b815260206004820152602c60248201527f4552433732313a20617070726f76656420717565727920666f72206e6f6e657860448201526b34b9ba32b73a103a37b5b2b760a11b60648201526084015b60405180910390fd5b506000908152600460205260409020546001600160a01b031690565b60006103e782610586565b9050806001600160a01b0316836001600160a01b031614156104555760405162461bcd60e51b815260206004820152602160248201527f4552433732313a20617070726f76616c20746f2063757272656e74206f776e656044820152603960f91b60648201526084016103b7565b336001600160a01b03821614806104715750610471813361023d565b6104e35760405162461bcd60e51b815260206004820152603860248201527f4552433732313a20617070726f76652063616c6c6572206973206e6f74206f7760448201527f6e6572206e6f7220617070726f76656420666f7220616c6c000000000000000060648201526084016103b7565b6104ed8383610924565b505050565b6104fc3382610992565b6105185760405162461bcd60e51b81526004016103b790611529565b6104ed838383610a78565b6104ed83838360405180602001604052806000815250610758565b600061054e600780546001019055565b600061055960075490565b90506105653382610c18565b61056f8184610d4b565b6008546102b7906001600160a01b03166001610693565b6000818152600260205260408120546001600160a01b0316806102b75760405162461bcd60e51b815260206004820152602960248201527f4552433732313a206f776e657220717565727920666f72206e6f6e657869737460448201526832b73a103a37b5b2b760b91b60648201526084016103b7565b60006001600160a01b0382166106685760405162461bcd60e51b815260206004820152602a60248201527f4552433732313a2062616c616e636520717565727920666f7220746865207a65604482015269726f206164647265737360b01b60648201526084016103b7565b506001600160a01b031660009081526003602052604090205490565b6060600180546102cc906115e9565b6001600160a01b0382163314156106ec5760405162461bcd60e51b815260206004820152601960248201527f4552433732313a20617070726f766520746f2063616c6c65720000000000000060448201526064016103b7565b3360008181526005602090815260408083206001600160a01b03871680855290835292819020805460ff191686151590811790915590519081529192917f17307eab39ab6107e8899845ad3d59bd9653f200f220920489ca2b5937696c31910160405180910390a35050565b6107623383610992565b61077e5760405162461bcd60e51b81526004016103b790611529565b61078a84848484610dd6565b50505050565b606061079b82610907565b6108015760405162461bcd60e51b815260206004820152603160248201527f45524337323155524953746f726167653a2055524920717565727920666f72206044820152703737b732bc34b9ba32b73a103a37b5b2b760791b60648201526084016103b7565b6000828152600660205260408120805461081a906115e9565b80601f0160208091040260200160405190810160405280929190818152602001828054610846906115e9565b80156108935780601f1061086857610100808354040283529160200191610893565b820191906000526020600020905b81548152906001019060200180831161087657829003601f168201915b5050505050905060006108b160408051602081019091526000815290565b90508051600014156108c4575092915050565b8151156108f65780826040516020016108de929190611458565b60405160208183030381529060405292505050919050565b6108ff84610e09565b949350505050565b6000908152600260205260409020546001600160a01b0316151590565b600081815260046020526040902080546001600160a01b0319166001600160a01b038416908117909155819061095982610586565b6001600160a01b03167f8c5be1e5ebec7d5bd14f71427d1e84f3dd0314c0f7b2291e5b200ac8c7c3b92560405160405180910390a45050565b600061099d82610907565b6109fe5760405162461bcd60e51b815260206004820152602c60248201527f4552433732313a206f70657261746f7220717565727920666f72206e6f6e657860448201526b34b9ba32b73a103a37b5b2b760a11b60648201526084016103b7565b6000610a0983610586565b9050806001600160a01b0316846001600160a01b03161480610a445750836001600160a01b0316610a398461034f565b6001600160a01b0316145b806108ff57506001600160a01b0380821660009081526005602090815260408083209388168352929052205460ff166108ff565b826001600160a01b0316610a8b82610586565b6001600160a01b031614610af35760405162461bcd60e51b815260206004820152602960248201527f4552433732313a207472616e73666572206f6620746f6b656e2074686174206960448201526839903737ba1037bbb760b91b60648201526084016103b7565b6001600160a01b038216610b555760405162461bcd60e51b8152602060048201526024808201527f4552433732313a207472616e7366657220746f20746865207a65726f206164646044820152637265737360e01b60648201526084016103b7565b610b60600082610924565b6001600160a01b0383166000908152600360205260408120805460019290610b899084906115a6565b90915550506001600160a01b0382166000908152600360205260408120805460019290610bb790849061157a565b909155505060008181526002602052604080822080546001600160a01b0319166001600160a01b0386811691821790925591518493918716917fddf252ad1be2c89b69c2b068fc378daa952ba7f163c4a11628f55a4df523b3ef91a4505050565b6001600160a01b038216610c6e5760405162461bcd60e51b815260206004820181905260248201527f4552433732313a206d696e7420746f20746865207a65726f206164647265737360448201526064016103b7565b610c7781610907565b15610cc45760405162461bcd60e51b815260206004820152601c60248201527f4552433732313a20746f6b656e20616c7265616479206d696e7465640000000060448201526064016103b7565b6001600160a01b0382166000908152600360205260408120805460019290610ced90849061157a565b909155505060008181526002602052604080822080546001600160a01b0319166001600160a01b03861690811790915590518392907fddf252ad1be2c89b69c2b068fc378daa952ba7f163c4a11628f55a4df523b3ef908290a45050565b610d5482610907565b610db75760405162461bcd60e51b815260206004820152602e60248201527f45524337323155524953746f726167653a2055524920736574206f66206e6f6e60448201526d32bc34b9ba32b73a103a37b5b2b760911b60648201526084016103b7565b600082815260066020908152604090912082516104ed92840190611108565b610de1848484610a78565b610ded84848484610ee1565b61078a5760405162461bcd60e51b81526004016103b7906114d7565b6060610e1482610907565b610e785760405162461bcd60e51b815260206004820152602f60248201527f4552433732314d657461646174613a2055524920717565727920666f72206e6f60448201526e3732bc34b9ba32b73a103a37b5b2b760891b60648201526084016103b7565b6000610e8f60408051602081019091526000815290565b90506000815111610eaf5760405180602001604052806000815250610eda565b80610eb984610fee565b604051602001610eca929190611458565b6040516020818303038152906040525b9392505050565b60006001600160a01b0384163b15610fe357604051630a85bd0160e11b81526001600160a01b0385169063150b7a0290610f25903390899088908890600401611487565b602060405180830381600087803b158015610f3f57600080fd5b505af1925050508015610f6f575060408051601f3d908101601f19168201909252610f6c918101906113b2565b60015b610fc9573d808015610f9d576040519150601f19603f3d011682016040523d82523d6000602084013e610fa2565b606091505b508051610fc15760405162461bcd60e51b81526004016103b7906114d7565b805181602001fd5b6001600160e01b031916630a85bd0160e11b1490506108ff565b506001949350505050565b6060816110125750506040805180820190915260018152600360fc1b602082015290565b8160005b811561103c578061102681611624565b91506110359050600a83611592565b9150611016565b60008167ffffffffffffffff81111561106557634e487b7160e01b600052604160045260246000fd5b6040519080825280601f01601f19166020018201604052801561108f576020820181803683370190505b5090505b84156108ff576110a46001836115a6565b91506110b1600a8661163f565b6110bc90603061157a565b60f81b8183815181106110df57634e487b7160e01b600052603260045260246000fd5b60200101906001600160f81b031916908160001a905350611101600a86611592565b9450611093565b828054611114906115e9565b90600052602060002090601f016020900481019282611136576000855561117c565b82601f1061114f57805160ff191683800117855561117c565b8280016001018555821561117c579182015b8281111561117c578251825591602001919060010190611161565b5061118892915061118c565b5090565b5b80821115611188576000815560010161118d565b600067ffffffffffffffff808411156111bc576111bc61167f565b604051601f8501601f19908116603f011681019082821181831017156111e4576111e461167f565b816040528093508581528686860111156111fd57600080fd5b858560208301376000602087830101525050509392505050565b80356001600160a01b038116811461122e57600080fd5b919050565b600060208284031215611244578081fd5b610eda82611217565b6000806040838503121561125f578081fd5b61126883611217565b915061127660208401611217565b90509250929050565b600080600060608486031215611293578081fd5b61129c84611217565b92506112aa60208501611217565b9150604084013590509250925092565b600080600080608085870312156112cf578081fd5b6112d885611217565b93506112e660208601611217565b925060408501359150606085013567ffffffffffffffff811115611308578182fd5b8501601f81018713611318578182fd5b611327878235602084016111a1565b91505092959194509250565b60008060408385031215611345578182fd5b61134e83611217565b915060208301358015158114611362578182fd5b809150509250929050565b6000806040838503121561137f578182fd5b61138883611217565b946020939093013593505050565b6000602082840312156113a7578081fd5b8135610eda81611695565b6000602082840312156113c3578081fd5b8151610eda81611695565b6000602082840312156113df578081fd5b813567ffffffffffffffff8111156113f5578182fd5b8201601f81018413611405578182fd5b6108ff848235602084016111a1565b600060208284031215611425578081fd5b5035919050565b600081518084526114448160208601602086016115bd565b601f01601f19169290920160200192915050565b6000835161146a8184602088016115bd565b83519083019061147e8183602088016115bd565b01949350505050565b6001600160a01b03858116825284166020820152604081018390526080606082018190526000906114ba9083018461142c565b9695505050505050565b602081526000610eda602083018461142c565b60208082526032908201527f4552433732313a207472616e7366657220746f206e6f6e20455243373231526560408201527131b2b4bb32b91034b6b83632b6b2b73a32b960711b606082015260800190565b60208082526031908201527f4552433732313a207472616e736665722063616c6c6572206973206e6f74206f6040820152701ddb995c881b9bdc88185c1c1c9bdd9959607a1b606082015260800190565b6000821982111561158d5761158d611653565b500190565b6000826115a1576115a1611669565b500490565b6000828210156115b8576115b8611653565b500390565b60005b838110156115d85781810151838201526020016115c0565b8381111561078a5750506000910152565b600181811c908216806115fd57607f821691505b6020821081141561161e57634e487b7160e01b600052602260045260246000fd5b50919050565b600060001982141561163857611638611653565b5060010190565b60008261164e5761164e611669565b500690565b634e487b7160e01b600052601160045260246000fd5b634e487b7160e01b600052601260045260246000fd5b634e487b7160e01b600052604160045260246000fd5b6001600160e01b0319811681146116ab57600080fd5b5056fea26469706673582212207317a64791e57daeaaf165fd330ec680c76b5f73e4184abd17c19e201f23539c64736f6c63430008040033",
  "linkReferences": {},
  "deployedLinkReferences": {}
}