{
  "_format": "hh-sol-artifact-1",
  "contractName": "NFTMarket",
  "sourceName": "contracts/NFTMarket.sol",
  "abi": [
    {
      "inputs": [],
      "stateMutability": "nonpayable",
      "type": "constructor"
    },
    {
      "anonymous": false,
      "inputs": [
        {
          "indexed": true,
          "internalType": "uint256",
          "name": "itemId",
          "type": "uint256"
        },
        {
          "indexed": true,
          "internalType": "address",
          "name": "nftContract",
          "type": "address"
        },
        {
          "indexed": true,
          "internalType": "uint256",
          "name": "tokenId",
          "type": "uint256"
        },
        {
          "indexed": false,
          "internalType": "address",
          "name": "seller",
          "type": "address"
        },
        {
          "indexed": false,
          "internalType": "address",
          "name": "owner",
          "type": "address"
        },
        {
          "indexed": false,
          "internalType": "uint256",
          "name": "price",
          "type": "uint256"
        },
        {
          "indexed": false,
          "internalType": "bool",
          "name": "sold",
          "type": "bool"
        },
        {
          "indexed": false,
          "internalType": "bool",
          "name": "listed",
          "type": "bool"
        }
      ],
      "name": "MarketItemCreated",
      "type": "event"
    },
    {
      "inputs": [],
      "name": "_itemIds",
      "outputs": [
        {
          "internalType": "uint256",
          "name": "_value",
          "type": "uint256"
        }
      ],
      "stateMutability": "view",
      "type": "function"
    },
    {
      "inputs": [],
      "name": "_itemsSold",
      "outputs": [
        {
          "internalType": "uint256",
          "name": "_value",
          "type": "uint256"
        }
      ],
      "stateMutability": "view",
      "type": "function"
    },
    {
      "inputs": [
        {
          "internalType": "address",
          "name": "_nftContract",
          "type": "address"
        },
        {
          "internalType": "uint256",
          "name": "_tokenId",
          "type": "uint256"
        },
        {
          "internalType": "uint256",
          "name": "_price",
          "type": "uint256"
        }
      ],
      "name": "createMarketItem",
      "outputs": [],
      "stateMutability": "payable",
      "type": "function"
    },
    {
      "inputs": [
        {
          "internalType": "address",
          "name": "_nftContract",
          "type": "address"
        },
        {
          "internalType": "uint256",
          "name": "_itemId",
          "type": "uint256"
        }
      ],
      "name": "createMarketSale",
      "outputs": [],
      "stateMutability": "payable",
      "type": "function"
    },
    {
      "inputs": [],
      "name": "fetchItemsCreated",
      "outputs": [
        {
          "components": [
            {
              "internalType": "uint256",
              "name": "itemId",
              "type": "uint256"
            },
            {
              "internalType": "address",
              "name": "nftContract",
              "type": "address"
            },
            {
              "internalType": "uint256",
              "name": "tokenId",
              "type": "uint256"
            },
            {
              "internalType": "address payable",
              "name": "seller",
              "type": "address"
            },
            {
              "internalType": "address payable",
              "name": "owner",
              "type": "address"
            },
            {
              "internalType": "uint256",
              "name": "price",
              "type": "uint256"
            },
            {
              "internalType": "bool",
              "name": "sold",
              "type": "bool"
            },
            {
              "internalType": "bool",
              "name": "listed",
              "type": "bool"
            }
          ],
          "internalType": "struct NFTMarket.MarketItem[]",
          "name": "",
          "type": "tuple[]"
        }
      ],
      "stateMutability": "view",
      "type": "function"
    },
    {
      "inputs": [],
      "name": "fetchMarketItems",
      "outputs": [
        {
          "components": [
            {
              "internalType": "uint256",
              "name": "itemId",
              "type": "uint256"
            },
            {
              "internalType": "address",
              "name": "nftContract",
              "type": "address"
            },
            {
              "internalType": "uint256",
              "name": "tokenId",
              "type": "uint256"
            },
            {
              "internalType": "address payable",
              "name": "seller",
              "type": "address"
            },
            {
              "internalType": "address payable",
              "name": "owner",
              "type": "address"
            },
            {
              "internalType": "uint256",
              "name": "price",
              "type": "uint256"
            },
            {
              "internalType": "bool",
              "name": "sold",
              "type": "bool"
            },
            {
              "internalType": "bool",
              "name": "listed",
              "type": "bool"
            }
          ],
          "internalType": "struct NFTMarket.MarketItem[]",
          "name": "",
          "type": "tuple[]"
        }
      ],
      "stateMutability": "view",
      "type": "function"
    },
    {
      "inputs": [],
      "name": "fetchMyNFTs",
      "outputs": [
        {
          "components": [
            {
              "internalType": "uint256",
              "name": "itemId",
              "type": "uint256"
            },
            {
              "internalType": "address",
              "name": "nftContract",
              "type": "address"
            },
            {
              "internalType": "uint256",
              "name": "tokenId",
              "type": "uint256"
            },
            {
              "internalType": "address payable",
              "name": "seller",
              "type": "address"
            },
            {
              "internalType": "address payable",
              "name": "owner",
              "type": "address"
            },
            {
              "internalType": "uint256",
              "name": "price",
              "type": "uint256"
            },
            {
              "internalType": "bool",
              "name": "sold",
              "type": "bool"
            },
            {
              "internalType": "bool",
              "name": "listed",
              "type": "bool"
            }
          ],
          "internalType": "struct NFTMarket.MarketItem[]",
          "name": "",
          "type": "tuple[]"
        }
      ],
      "stateMutability": "view",
      "type": "function"
    },
    {
      "inputs": [],
      "name": "getListingPrice",
      "outputs": [
        {
          "internalType": "uint256",
          "name": "",
          "type": "uint256"
        }
      ],
      "stateMutability": "view",
      "type": "function"
    },
    {
      "inputs": [
        {
          "internalType": "uint256",
          "name": "",
          "type": "uint256"
        }
      ],
      "name": "idToMarketItem",
      "outputs": [
        {
          "internalType": "uint256",
          "name": "itemId",
          "type": "uint256"
        },
        {
          "internalType": "address",
          "name": "nftContract",
          "type": "address"
        },
        {
          "internalType": "uint256",
          "name": "tokenId",
          "type": "uint256"
        },
        {
          "internalType": "address payable",
          "name": "seller",
          "type": "address"
        },
        {
          "internalType": "address payable",
          "name": "owner",
          "type": "address"
        },
        {
          "internalType": "uint256",
          "name": "price",
          "type": "uint256"
        },
        {
          "internalType": "bool",
          "name": "sold",
          "type": "bool"
        },
        {
          "internalType": "bool",
          "name": "listed",
          "type": "bool"
        }
      ],
      "stateMutability": "view",
      "type": "function"
    }
  ],
  "bytecode": "0x60806040526658d15e1762800060045534801561001b57600080fd5b506001600055600380546001600160a01b03191633179055610ee6806100426000396000f3fe6080604052600436106100865760003560e01c806358eb2df51161005957806358eb2df51461010157806387506a0d14610116578063c23b139e1461012d578063e61a70c014610140578063f064c32e146101fe57600080fd5b80630f08efe01461008b57806312e85585146100b6578063202e3740146100d557806334a7f193146100ea575b600080fd5b34801561009757600080fd5b506100a0610213565b6040516100ad9190610daf565b60405180910390f35b3480156100c257600080fd5b506004545b6040519081526020016100ad565b3480156100e157600080fd5b506100a06103cc565b3480156100f657600080fd5b506001546100c79081565b61011461010f366004610d65565b6105c3565b005b34801561012257600080fd5b506002546100c79081565b61011461013b366004610d3c565b6108c9565b34801561014c57600080fd5b506101b261015b366004610d97565b6005602081905260009182526040909120805460018201546002830154600384015460048501549585015460069095015493956001600160a01b039384169592949184169316919060ff8082169161010090041688565b604080519889526001600160a01b0397881660208a015288019590955292851660608701529316608085015260a084019290925290151560c0830152151560e0820152610100016100ad565b34801561020a57600080fd5b506100a0610ae5565b6060600061022060015490565b9050600061022d60025490565b60015461023a9190610e68565b90506000808267ffffffffffffffff81111561026657634e487b7160e01b600052604160045260246000fd5b60405190808252806020026020018201604052801561029f57816020015b61028c610cdc565b8152602001906001900390816102845790505b50905060005b848110156103c35760006005816102bd846001610e50565b81526020810191909152604001600020600401546001600160a01b031614156103b15760006102ed826001610e50565b600081815260056020818152604092839020835161010080820186528254825260018301546001600160a01b0390811694830194909452600283015495820195909552600382015483166060820152600482015490921660808301529182015460a0820152600682015460ff808216151560c0840152939004909216151560e083015285519293509185908790811061039657634e487b7160e01b600052603260045260246000fd5b60209081029190910101526103ac600186610e50565b945050505b806103bb81610e7f565b9150506102a5565b50949350505050565b606060006103d960015490565b905060008060005b8381101561043c5733600560006103f9846001610e50565b81526020810191909152604001600020600401546001600160a01b0316141561042a57610427600184610e50565b92505b8061043481610e7f565b9150506103e1565b5060008267ffffffffffffffff81111561046657634e487b7160e01b600052604160045260246000fd5b60405190808252806020026020018201604052801561049f57816020015b61048c610cdc565b8152602001906001900390816104845790505b50905060005b848110156103c35733600560006104bd846001610e50565b81526020810191909152604001600020600401546001600160a01b031614156105b15760006104ed826001610e50565b600081815260056020818152604092839020835161010080820186528254825260018301546001600160a01b0390811694830194909452600283015495820195909552600382015483166060820152600482015490921660808301529182015460a0820152600682015460ff808216151560c0840152939004909216151560e083015285519293509185908790811061059657634e487b7160e01b600052603260045260246000fd5b60209081029190910101526105ac600186610e50565b945050505b806105bb81610e7f565b9150506104a5565b6002600054141561061b5760405162461bcd60e51b815260206004820152601f60248201527f5265656e7472616e637947756172643a207265656e7472616e742063616c6c0060448201526064015b60405180910390fd5b60026000558061066d5760405162461bcd60e51b815260206004820152601c60248201527f5072696365206d757374206265206174206c65617374203120776569000000006044820152606401610612565b61067b600180546001019055565b600061068660015490565b9050604051806101000160405280828152602001856001600160a01b03168152602001848152602001336001600160a01b0316815260200160006001600160a01b0316815260200183815260200160001515815260200160011515815250600560008381526020019081526020016000206000820151816000015560208201518160010160006101000a8154816001600160a01b0302191690836001600160a01b031602179055506040820151816002015560608201518160030160006101000a8154816001600160a01b0302191690836001600160a01b0316021790555060808201518160040160006101000a8154816001600160a01b0302191690836001600160a01b0316021790555060a0820151816005015560c08201518160060160006101000a81548160ff02191690831515021790555060e08201518160060160016101000a81548160ff021916908315150217905550905050836001600160a01b03166323b872dd3330866040518463ffffffff1660e01b815260040161082e939291906001600160a01b039384168152919092166020820152604081019190915260600190565b600060405180830381600087803b15801561084857600080fd5b505af115801561085c573d6000803e3d6000fd5b50506040805133815260006020820181905281830187905260608201526001608082015290518693506001600160a01b038816925084917fc99151f4453170a67bc7441775fde1a3bc3220c06645df1121e703aab5e7da5d919081900360a00190a4505060016000555050565b6002600054141561091c5760405162461bcd60e51b815260206004820152601f60248201527f5265656e7472616e637947756172643a207265656e7472616e742063616c6c006044820152606401610612565b60026000818155828152600560208190526040909120908101549101543482146109b0576040805162461bcd60e51b81526020600482015260248101919091527f506c65617365207375626d6974207468652061736b696e67207072696365206960448201527f6e206f7264657220746f20636f6d706c657465207468652070757263686173656064820152608401610612565b6000838152600560205260408082206003015490516001600160a01b03909116913480156108fc02929091818181858888f193505050501580156109f8573d6000803e3d6000fd5b506040516323b872dd60e01b8152306004820152336024820152604481018290526001600160a01b038516906323b872dd90606401600060405180830381600087803b158015610a4757600080fd5b505af1158015610a5b573d6000803e3d6000fd5b50505060008481526005602052604090206004810180546001600160a01b03191633179055600601805460ff1916600117905550610a9d600280546001019055565b6003546004546040516001600160a01b039092169181156108fc0291906000818181858888f19350505050158015610ad9573d6000803e3d6000fd5b50506001600055505050565b60606000610af260015490565b905060008060005b83811015610b55573360056000610b12846001610e50565b81526020810191909152604001600020600301546001600160a01b03161415610b4357610b40600184610e50565b92505b80610b4d81610e7f565b915050610afa565b5060008267ffffffffffffffff811115610b7f57634e487b7160e01b600052604160045260246000fd5b604051908082528060200260200182016040528015610bb857816020015b610ba5610cdc565b815260200190600190039081610b9d5790505b50905060005b848110156103c3573360056000610bd6846001610e50565b81526020810191909152604001600020600301546001600160a01b03161415610cca576000610c06826001610e50565b600081815260056020818152604092839020835161010080820186528254825260018301546001600160a01b0390811694830194909452600283015495820195909552600382015483166060820152600482015490921660808301529182015460a0820152600682015460ff808216151560c0840152939004909216151560e0830152855192935091859087908110610caf57634e487b7160e01b600052603260045260246000fd5b6020908102919091010152610cc5600186610e50565b945050505b80610cd481610e7f565b915050610bbe565b6040805161010081018252600080825260208201819052918101829052606081018290526080810182905260a0810182905260c0810182905260e081019190915290565b80356001600160a01b0381168114610d3757600080fd5b919050565b60008060408385031215610d4e578182fd5b610d5783610d20565b946020939093013593505050565b600080600060608486031215610d79578081fd5b610d8284610d20565b95602085013595506040909401359392505050565b600060208284031215610da8578081fd5b5035919050565b602080825282518282018190526000919060409081850190868401855b82811015610e4357815180518552868101516001600160a01b039081168887015286820151878701526060808301518216908701526080808301519091169086015260a0808201519086015260c08082015115159086015260e0908101511515908501526101009093019290850190600101610dcc565b5091979650505050505050565b60008219821115610e6357610e63610e9a565b500190565b600082821015610e7a57610e7a610e9a565b500390565b6000600019821415610e9357610e93610e9a565b5060010190565b634e487b7160e01b600052601160045260246000fdfea26469706673582212206d8212568748021e3b00e55bb1307f674f17f35dbad194de979e90a04eec57da64736f6c63430008040033",
  "linkReferences": {},
  "deployedLinkReferences": {}
}